:020000040800F2
:10000000002800201113000815120008191200081A
:100010001D1200082112000825120008000000002F
:10002000000000000000000000000000291200088D
:100030002D120008000000003112000835120008DF
:1000400059130008591300085913000859130008E0
:1000500059130008591300085913000859130008D0
:1000600059130008591300085913000859130008C0
:1000700059130008591300085913000859130008B0
:1000800059130008591300085913000859130008A0
:1000900059130008591300085913000839120008B1
:1000A0005913000859130008591300085913000880
:1000B00059130008591300080000000059130008E4
:1000C0005913000800000000000000005913000848
:1000D0000000000041120008591300080000000051
:1000E00059130008591300085913000800000000B4
:1000F0000000000000000000000000000000000000
:0C01000000000000000000005FF808F1A3
:1001100010B5054C237833B9044B13B10448AFF341
:1001200000800123237010BDD401002000000000D6
:100130004868000808B5034B1BB103490348AFF3F7
:10014000008008BD00000000D801002048680008B9
:10015000034613F8012B002AFBD1181A0138704707
:1001600081F0004102E000BF83F0004330B54FEA68
:1001700041044FEA430594EA050F08BF90EA020FD5
:100180001FBF54EA000C55EA020C7FEA645C7FEA68
:10019000655C00F0E2804FEA5454D4EB5555B8BF8B
:1001A0006D420CDD2C4480EA020281EA030382EAFC
:1001B000000083EA010180EA020281EA0303362D8E
:1001C00088BF30BD11F0004F4FEA01314FF4801C61
:1001D0004CEA113102D0404261EB410113F0004F73
:1001E0004FEA03334CEA133302D0524263EB43032A
:1001F00094EA050F00F0A780A4F10104D5F1200EC8
:100200000DDB02FA0EFC22FA05F2801841F1000122
:1002100003FA0EF2801843FA05F359410EE0A5F1F6
:1002200020050EF1200E012A03FA0EFC28BF4CF027
:10023000020C43FA05F3C01851EBE37101F00045DD
:1002400007D54FF0000EDCF1000C7EEB00006EEBEA
:100250000101B1F5801F1BD3B1F5001F0CD3490874
:100260005FEA30004FEA3C0C04F101044FEA4452CB
:1002700012F5800F80F09A80BCF1004F08BF5FEA52
:10028000500C50F1000041EB045141EA050130BD32
:100290005FEA4C0C404141EB0101013C28BFB1F544
:1002A000801FE9D291F0000F04BF01460020B1FA8F
:1002B00081F308BF2033A3F10B03B3F120020CDA62
:1002C0000C3208DD02F1140CC2F10C0201FA0CF040
:1002D00021FA02F10CE002F11402D8BFC2F1200CA5
:1002E00001FA02F120FA0CFCDCBF41EA0C0190405B
:1002F000E41AA2BF01EB0451294330BD6FEA0404A4
:100300001F3C1CDA0C340EDC04F11404C4F120028E
:1003100020FA04F001FA02F340EA030021FA04F3A0
:1003200045EA030130BDC4F10C04C4F1200220FAF7
:1003300002F001FA04F340EA0300294630BD21FA35
:1003400004F0294630BD94F0000F83F4801306BFFB
:1003500081F480110134013D4EE77FEA645C18BFEF
:100360007FEA655C29D094EA050F08BF90EA020F86
:1003700005D054EA000C04BF1946104630BD91EA7E
:10038000030F1EBF0021002030BD5FEA545C05D181
:100390004000494128BF41F0004130BD14F58004C0
:1003A0003CBF01F5801130BD01F0004545F0FE4134
:1003B00041F470014FF0000030BD7FEA645C1ABF69
:1003C000194610467FEA655C1CBF0B46024650EAA0
:1003D000013406BF52EA033591EA030F41F40021CC
:1003E00030BD00BF90F0000F04BF0021704730B552
:1003F0004FF4806404F132044FF000054FF0000127
:1004000050E700BF90F0000F04BF0021704730B5E7
:100410004FF4806404F1320410F0004548BF4042BC
:100420004FF000013EE700BF42004FEAE2014FEA11
:1004300031014FEA02701FBF12F07F4393F07F4FEC
:1004400081F06051704732F07F4208BF704793F0EF
:100450007F4F04BF41F40021704730B54FF4607402
:1004600001F0004521F000411CE700BF50EA010205
:1004700008BF704730B54FF000050AE050EA0102AE
:1004800008BF704730B511F0004502D5404261EB1E
:1004900041014FF4806404F132045FEA915C3FF45F
:1004A000D8AE4FF003025FEADC0C18BF03325FEAFC
:1004B000DC0C18BF033202EBDC02C2F1200300FAAD
:1004C00003FC20FA02F001FA03FE40EA0E0021FAD2
:1004D00002F11444BDE600BF70B54FF0FF0C4CF4C0
:1004E000E06C1CEA11541DBF1CEA135594EA0C0F72
:1004F00095EA0C0F00F0DEF82C4481EA030621EAAD
:100500004C5123EA4C5350EA013518BF52EA0335E7
:1005100041F4801143F4801338D0A0FB02CE4FF099
:100520000005E1FB02E506F00042E0FB03E54FF0C9
:100530000006E1FB03569CF0000F18BF4EF0010EC1
:10054000A4F1FF04B6F5007F64F5407404D25FEABD
:100550004E0E6D4146EB060642EAC62141EA555170
:100560004FEAC52040EA5E504FEACE2EB4F1FD0CB2
:1005700088BFBCF5E06F1ED8BEF1004F08BF5FEA30
:10058000500E50F1000041EB045170BD06F00046E2
:1005900046EA010140EA020081EA0301B4EB5C048F
:1005A000C2BFD4EB0C0541EA045170BD41F4801187
:1005B0004FF0000E013C00F3AB8014F1360FDEBFAC
:1005C000002001F0004170BDC4F10004203C35DA88
:1005D0000C341BDC04F11404C4F1200500FA05F30B
:1005E00020FA04F001FA05F240EA020001F00042AC
:1005F00021F0004110EBD37021FA04F642EB060122
:100600005EEA430E08BF20EAD37070BDC4F10C044B
:10061000C4F1200500FA04F320FA05F001FA04F20F
:1006200040EA020001F0004110EBD37041F10001FB
:100630005EEA430E08BF20EAD37070BDC4F1200506
:1006400000FA05F24EEA020E20FA04F301FA05F26E
:1006500043EA020321FA04F001F0004121FA04F216
:1006600020EA020000EBD3705EEA430E08BF20EAE6
:10067000D37070BD94F0000F0FD101F00046400020
:1006800041EB010111F4801F08BF013CF7D041EAA2
:10069000060195F0000F18BF704703F000465200A6
:1006A00043EB030313F4801F08BF013DF7D043EA77
:1006B0000603704794EA0C0F0CEA135518BF95EA2D
:1006C0000C0F0CD050EA410618BF52EA4306D1D1B4
:1006D00081EA030101F000414FF0000070BD50EAD3
:1006E000410606BF1046194652EA430619D094EA5D
:1006F0000C0F02D150EA013613D195EA0C0F05D147
:1007000052EA03361CBF104619460AD181EA03019A
:1007100001F0004141F0FE4141F470014FF0000052
:1007200070BD41F0FE4141F4780170BD70B54FF0ED
:10073000FF0C4CF4E06C1CEA11541DBF1CEA13556D
:1007400094EA0C0F95EA0C0F00F0A7F8A4EB05044F
:1007500081EA030E52EA03354FEA013100F0888046
:100760004FEA03334FF0805545EA131343EA12630F
:100770004FEA022245EA111545EA10654FEA0026C4
:100780000EF000419D4208BF964244F1FD0404F57D
:10079000407402D25B084FEA3202B61A65EB0305D9
:1007A0005B084FEA32024FF480104FF4002CB6EB96
:1007B000020E75EB030E22BFB61A754640EA0C0016
:1007C0005B084FEA3202B6EB020E75EB030E22BF56
:1007D000B61A754640EA5C005B084FEA3202B6EB97
:1007E000020E75EB030E22BFB61A754640EA9C0056
:1007F0005B084FEA3202B6EB020E75EB030E22BF26
:10080000B61A754640EADC0055EA060E18D04FEAE3
:10081000051545EA16754FEA06164FEAC30343EA83
:1008200052734FEAC2025FEA1C1CC0D111F4801F50
:100830000BD141EA00014FF000004FF0004CB6E749
:1008400011F4801F04BF01430020B4F1FD0C88BFE8
:10085000BCF5E06F3FF6AFAEB5EB030C04BFB6EBF3
:10086000020C5FEA500C50F1000041EB045170BDE6
:100870000EF0004E4EEA113114EB5C04C2BFD4EB13
:100880000C0541EA045170BD41F480114FF0000E97
:10089000013C90E645EA060E8DE60CEA135594EA13
:1008A0000C0F08BF95EA0C0F3FF43BAF94EA0C0F16
:1008B0000AD150EA01347FF434AF95EA0C0F7FF48B
:1008C00025AF104619462CE795EA0C0F06D152EADF
:1008D00003353FF4FDAE1046194622E750EA4106C3
:1008E00018BF52EA43067FF4C5AE50EA41047FF4D4
:1008F0000DAF52EA43057FF4EBAE12E74FF0FF3C39
:1009000006E000BF4FF0010C02E000BF4FF0010C09
:100910004DF804CD4FEA410C7FEA6C5C4FEA430C82
:1009200018BF7FEA6C5C1BD001B050EA410C0CBFD1
:1009300052EA430C91EA030F02BF90EA020F002033
:10094000704710F1000F91EA030F58BF994208BF9A
:1009500090422CBFD8176FEAE37040F00100704757
:100960004FEA410C7FEA6C5C02D150EA013C07D1AE
:100970004FEA430C7FEA6C5CD6D152EA033CD3D0F9
:100980005DF8040B704700BF8446104662468C46F3
:100990001946634600E000BF01B5FFF7B7FF002826
:1009A00048BF10F1000F01BD4DF808EDFFF7F4FF4F
:1009B0000CBF012000205DF808FB00BF4DF808EDDA
:1009C000FFF7EAFF34BF012000205DF808FB00BFFD
:1009D0004DF808EDFFF7E0FF94BF012000205DF81F
:1009E00008FB00BF4DF808EDFFF7CEFF94BF0120D4
:1009F00000205DF808FB00BF4DF808EDFFF7C4FFCD
:100A000034BF012000205DF808FB00BF4FEA410C15
:100A10007FEA6C5C02D150EA013C0AD14FEA430CF8
:100A20007FEA6C5C02D152EA033C02D14FF0000035
:100A300070474FF0010070474FEA410212F5001273
:100A400015D211D56FF47873B3EB625212D94FEA15
:100A5000C12343F0004343EA505311F0004F23FAFF
:100A600002F018BF404270474FF00000704750EA54
:100A7000013005D111F0004008BF6FF00040704711
:100A80004FF00000704700BF4FEA4102B2F1E0436F
:100A900024BFB3F5001CDCF1FE5C0DD901F0004C65
:100AA0004FEAC0024CEA5070B2F1004F40EB8300B5
:100AB00008BF20F00100704711F0804F21D113F1E1
:100AC0003872BCBF01F00040704741F480114FEA1A
:100AD0005252C2F11802C2F1200C10FA0CF320FAA3
:100AE00002F018BF40F001004FEAC1234FEAD323C0
:100AF00003FA0CFC40EA0C0023FA02F34FEA43032A
:100B0000CCE77FEA625307D150EA01331EBF4FF0B2
:100B1000FE4040F44000704701F0004040F0FE40CD
:100B200040F40000704700BF4FF4803330B54FF4FD
:100B3000803195B0012000240225012212934FF448
:100B4000E013CDE90A010AA80E921393CDE90F44F0
:100B5000CDE90644CDE90844CDE902440C9405945E
:100B6000019411950D94049401F02EF90F2305932F
:100B70004FF48063294605A80893CDE906540994EB
:100B800001F012FB4FF4004301A80195039301F01B
:100B9000EDFB15B030BD00BF2DE9F04F0027C3B00D
:100BA00000F000FCFFF7C0FFCDE91077CDE9127728
:100BB000A94C3A46A3694FF4005143F01003A361D6
:100BC000A369A64803F010030693069BA3690126B8
:100BD00043F02003A361A3694FF4807803F020035E
:100BE0000793079BA369DFF8789243F00403A3619E
:100BF000A369DFF870B203F004030893089BA369AC
:100C0000DFF864A243F00803A361A469974D04F0E0
:100C100008040994099C01F0BDF84FF400511091AB
:100C200002218E48139110A9CDE9116700F0ACFFA5
:100C30008F4810A9CDE91089129700F0A5FF3A4618
:100C40003946172000F0CCFE172000F007FF4FF4C4
:100C5000E1320C2387495846CBE90012CBE905372E
:100C6000CBE90277CBF81070CBF81C7001F074FF61
:100C70004FF460234FF010084FF001097E495046B1
:100C8000CAF81C30CDE910771297CAF808708AF8B4
:100C90000C608AF81470CAF80470CAF81060CAF8B8
:100CA000001000F0B5FB10A95046CDE9108912974D
:100CB00000F040FD4FF4602370492846EB61CDE918
:100CC00010771297AF602E732F756F602E612960B9
:100CD00000F09EFB06214FF007084FF0010912912A
:100CE000284610A9CDE9108900F024FD4FF080417D
:100CF000634CCDE90C7721604FF6FF71E1608021F4
:100D00002046CDE90E77CDE90A77CDE91077CDE918
:100D10001277CDE91477C4E9017716972761A161AD
:100D200001F00EFC4FF480504FF000084FF0000926
:100D30000CA90C90204601F031FE204601F06CFC1D
:100D4000CDE90A894FF060084FF000090AA9204652
:100D500001F0D4FE042210A92046CDE910890FF23B
:100D6000E809D9E900891297149701F017FD0822C4
:100D700010A9204601F012FD0C2210A9204601F016
:100D80000DFD204600F0DAF9504600F0B1FD28468E
:100D900000F0AEFD32463B49584601F0EDFF04211C
:100DA000204601F0A3FC0821204601F09FFC0C2105
:100DB000204601F09BFC0026334F6421504600F092
:100DC000E7FB6421284600F0E3FB504600F0AEFC50
:100DD0008346284600F0AAFC03464FF47A74DBB23F
:100DE0005FFA8BF0039304940294FFF70BFB4246E7
:100DF0004B46FFF771FB02460B4615A1D1E90001F6
:100E0000FFF7B2F93B463246FFF790FCFFF73CFE96
:100E1000FFF70AFB8C468346C821CDE900BC1B4A7C
:100E200010A802F0DFFE10A8FFF792F90246642333
:100E300010A992B20B4801F0FDFE204600F0D6FA50
:100E4000BBE700BFAFF30080AD4F39268BFBC73F38
:100E5000B0726891ED5876400010024000100140D9
:100E600000002110E002002038020020680200206B
:100E7000000C0140003801400024014000280140DE
:100E800098020020FC010020000024407C6800083B
:100E900030B504468BB000F0A3FA154DB4F5807F51
:100EA000286001D00BB030BD124C2368C01AC8288E
:100EB000F8D94FF40051104800F066FF0F4A03467E
:100EC0002821684602F08EFE4FF400510A4800F0D7
:100ED00065FF6846FFF73CF902466423694692B213
:100EE000074801F0A7FE2B6823600BB030BD00BFA0
:100EF0000002002028030020001001406C68000858
:100F0000E00200202DE9F041414B9CB01B780D2BF5
:100F100010D00A2B0ED03F493F4891F90020541CB5
:100F20000C70835401223A493C481CB0BDE8F041A2
:100F300001F022BF0026374C374D94F90030384974
:100F40005A1C22700DA82A46EE5402F07FFE0DA80E
:100F5000FFF7FEF80246642392B230480DA901F073
:100F600069FE304A2B6893420BD02F4A934228D017
:100F7000002194F90020284802F0F7FE0023237096
:100F8000D0E72A4FDFF8A8802A4E3B4642462A493E
:100F90002846009602F07AFE4FF6FF704FF080412F
:100FA000D8F800203B68A2EB0222A3EB0323034402
:100FB00002448A63CB633368A3EB032303440B64CB
:100FC000D6E71E4B6A689A42D2D144F24C532A8922
:100FD0009A42CDD1AB7A002BCAD14FF400511848B8
:100FE00000F0D2FE174A0346282103A802F0FAFDBA
:100FF0004FF40051124800F0D1FE03A8FFF7A8F803
:101000000246642303A992B2044801F013FEAFE73D
:10101000FC010020FD01002004020020E00200206D
:10102000E06800085247425F4C45445FF4010020ED
:10103000F8010020F0010020F0680008544F4747F5
:10104000001001406C6800080E4B82B09A690E498E
:1010500042F001029A619A6902F001020092009A3C
:10106000DA6942F08052DA61DB6903F08053019360
:10107000019B4B6823F0E06343F000734B6002B0C8
:10108000704700BF0010024000000140002330B54F
:101090001D49026889B08A42CDE90433CDE906339F
:1010A00004D01A4B9A4210D009B030BD03F18043EE
:1010B00003F504339A6942F400729A619B6903F460
:1010C00000730193019B09B030BD8024032503F513
:1010D00068439A690E4842F480629A619A6904A949
:1010E00002F480620292029A9A6942F004029A61C2
:1010F0009B69CDE9044503F004030393039B00F0CF
:1011000043FD09B030BD00BF00240140002801406C
:10111000000801400368B3F1804F00D0704703F529
:101120000433DA6982B042F00102DA61DB6903F06C
:1011300001030193019B02B0704700BF002370B50B
:10114000026886B0B2F1804FCDE90233CDE90433B5
:1011500001D006B070BD0E240225022603F18043A3
:1011600003F504339A69084842F004029A619B69C6
:1011700002A903F004030193CDE90245019B059602
:1011800000F002FD06B070BD00080140D0B500249B
:101190001E4B026886B09A42CDE90244CDE9044470
:1011A00001D006B0D0BD03F558439A694FF40076DC
:1011B00042F480429A619A69022702F480420092C6
:1011C000009A9A6902A942F004029A619B69104848
:1011D00003F0040301930323019A0593CDE9026709
:1011E00000F0D2FC00234FF4806202A90848CDE948
:1011F0000223049400F0C8FC22462146252000F07A
:10120000EFFB252000F02AFC06B0D0BD00380140DD
:1012100000080140FEE700BFFEE700BFFEE700BF99
:10122000FEE700BFFEE700BF704700BF704700BF8A
:10123000704700BF00F0C8B84FF4807000F0B8BD30
:10124000014801F033BE00BFE002002001207047DA
:1012500008B502F0DDFD162203464FF0FF301A609C
:1012600008BD00BF08B502F0D3FD16230360FEE7FA
:1012700070B5161E07DD0C468D19AFF3008004F81B
:10128000010BA542F9D1304670BD00BF70B5161EE6
:1012900007DD0C468D1914F8010BAFF30080AC424A
:1012A000F9D1304670BD00BF4FF0FF30704700BF2E
:1012B0004FF4005300204B60704700BF012070477F
:1012C000002070470D49034610B50D4A0D4C0868C3
:1012D000121B20B10344934207D80B6010BD0A4C87
:1012E0002046034493420C60F7D902F091FD0C2292
:1012F00003464FF0FF301A6010BD00BF2C030020E2
:10130000002800200004000080040020704700BF77
:10131000FFF7FCFF0B480C490C4A002302E0D458AD
:10132000C4500433C4188C42F9D3094A094C002331
:1013300001E013600432A242FBD302F06FFDFFF71D
:101340002BFC704700000020D4010020E06C000856
:10135000D401002080040020FEE7000038B54FF4DF
:101360007A730D4A054611780C4AB3FBF1F3126803
:10137000B2FBF3F000F080FB08B90F2D01D901207A
:1013800038BD0446024629464FF0FF3000F028FBE6
:10139000034B20461D6038BD0400002000000020E3
:1013A00008000020074A08B51368032043F0100323
:1013B000136000F003FB0F20FFF7D0FFFFF744FEA0
:1013C000002008BD00200240034A044B11681B782E
:1013D0000B441360704700BF30030020040000205E
:1013E000014B1868704700BF3003002038B5044631
:1013F000FFF7F6FF631C054602D0044B1B781C4424
:10140000FFF7EEFF401BA042FAD338BD04000020D6
:10141000002800F08B8038B5836A0446002B6DD01D
:1014200023689A68D10742D4A26AD20660D4A26A1D
:101430006168E06922F48852257B22F002020143B0
:1014400042F00202A26241EA4502A168B1F5807F42
:101450005AD0A1F10100B0FA80F094F814C040090C
:10146000BCF1010F4FEA00206CD05D6825F469459E
:10147000284358609D6844482840104398600129DB
:1014800050D00020D96A21F470010143D9629968D3
:101490003E4B0B409A424BD00120A36A23F012032B
:1014A00043F01003A362E36A0343E36238BD9A6822
:1014B00022F001029A60FFF793FF236805469A68BD
:1014C000D207B1D502E09A68D107ADD5FFF788FF02
:1014D000401B02282368F6D99A68D007F3D5A36A7F
:1014E00043F01003A362E36A43F00103E362A36ADB
:1014F000A36A012043F01003A36238BDC36280F8E1
:101500002430FFF7C3FD8BE7207D012819D05868F0
:101510001D4920F4694040F480705860986801408B
:1015200011439960206901380005ABE7012070473D
:101530000020E062A36A23F0030343F00103A362E7
:1015400038BD0846C5B1A56A45F02005A562E56A23
:1015500045F00105E5625D68B1F5807F25F46945D8
:1015600040EA050058609D68074800EA050040EA27
:101570000200986083D1D5E7A569013D40EA453076
:1015800040F40060E7E700BFFDF7E1FFFE0E1FFF3C
:101590002DE9F0410546002482B00E460194FFF784
:1015A0001FFF2B689A68D7056ED45A680746D10585
:1015B0001AD4DA6A12F4700F16D1721C6ED11A683E
:1015C0009407FCD56FF012021A60AA6A42F4007206
:1015D000AA629B6803F46023B3F5602F00F08A8051
:1015E000002002B0BDE8F0814C4B0220D3F800800F
:1015F00000F03EFF2A684A49146913460C42B8FBC2
:10160000F0F810D1D06801F15C4108420BD11069AB
:10161000444908427FD1D06801F16E41084214BFAD
:101620002921142109E010693E49084222D1D068DD
:1016300001F16E4108421DD1542101FB08F80199C6
:101640008845BFD9711C32D036B138E0019B0133D7
:101650000193019B434530D2019B4345F6D20022C2
:101660000320AB6A85F8242043F00403AB6202B088
:10167000BDE8F08110692C49084231D1D068084298
:1016800014BFFC215421D8E70120AB6A85F824401F
:1016900043F02003AB6202B0BDE8F0811A68900706
:1016A00090D4FEB91A6812F0020286D1D8E7019BE5
:1016B00001330193019B9845F9D8134682E7FFF760
:1016C0008FFEC31B9E4202D2019B9845C7D8019B47
:1016D00001330193019B9845F1D82A68134671E7BD
:1016E000FC21AAE7FFF77CFEC31BB3422B687FF601
:1016F00064AFD7E7287B00287FF472AFAB6A23F48E
:101700008073AB62AB6ADB043FF56AAFAB6A43F050
:101710000103AB6265E729218FE700BF00000020CD
:101720002449922492244912499224000368D86CD7
:10173000704700BF002330B583B0019390F8243088
:10174000012B74D0012380F824304B680246062B0D
:10175000046832D90C2B03EB83034ED84FF01F0CD7
:101760000868256B233B00FA03FE0CFA03F325EA15
:10177000030343EA0E032363092830D94FF0070C13
:101780008D6800EB4001E3681E398D400CFA01F1D1
:1017900023EA0103A0F110012B430129E36044D89F
:1017A0002E4B9C4238D00120936A43F02003936271
:1017B000002382F8243003B030BD4FF01F0C0868BE
:1017C00003EB8303656B053B00FA03FE0CFA03F39E
:1017D00025EA030343EA0E0309286363CED80725ED
:1017E0008968236900EB4000814005FA00F023EA94
:1017F00000030B4300202361DAE74FF01F0C086859
:10180000E56A413B00FA03FE0CFA03F325EA030301
:1018100043EA0E03E362AFE7A3681B0205D4A368A3
:10182000102843F40003A36004D00020C0E7022086
:1018300003B030BD0A4B0B491B68A1FB03139B0C83
:1018400003EB83035B000193019B002BEDD0019B15
:10185000013B0193019B002BF9D1E6E700240140F5
:101860000000002083DE1B43002330B5026883B0F4
:1018700001939368D90727D41B4B04461B681B4868
:101880009168A0FB030341F001019B0C916001935F
:10189000019B2BB1019B013B0193019B002BF9D1D3
:1018A000FFF79EFD236805469B68DA070CD4FFF717
:1018B00097FD431B022B236803D99A6812F001029B
:1018C00005D09B68DB07F2D5002003B030BD0120B6
:1018D000A36A84F8242043F01003A362E36A03435D
:1018E000E36203B030BD00BF0000002083DE1B4375
:1018F00090F82430012B38D0012310B580F8243023
:101900000446FFF7B1FF60BBA36A2268294923F4AC
:10191000407323F0010343F480738A42A36226D00C
:10192000A36A23F48013A362536859052BD4A36AD6
:10193000002113F4805318BFE36A84F8241018BF01
:1019400023F00603E3626FF002031360936803F46D
:101950006023B3F5602F1DD0936843F48013936028
:1019600010BD002384F8243010BD02207047124BB4
:10197000596811F4702FD3D0A16A41F48011A1628B
:101980005B685B05D3D5A36A23F4405343F48053CB
:10199000A362CCE7074B9A4204D0936843F4A003B8
:1019A000936010BDA3F580635B6813F4702FD3D1EF
:1019B000F3E700BF00280140002401404FF6FF0C70
:1019C00006490302CA6803F4E06302EA0C02134307
:1019D00043F0BF6343F40033CB60704700ED00E099
:1019E0001C4B00B5DB68C3F30223C3F1070EBEF145
:1019F000040F03F1040C28BF4FF0040EBCF1060FD6
:101A00001BD94FF0FF3C033B0CFA03FC22EA0C020B
:101A10004FF0FF3C0CFA0EFC21EA0C019940002823
:101A200041EA02010CDB090100F16040C9B200F596
:101A3000614080F800135DF804FB00221346E7E7DD
:101A4000054B00F00F000901C9B2034419765DF897
:101A500004FB00BF00ED00E0FCEC00E0002807DB29
:101A6000012300F01F01034A40098B4042F8203057
:101A7000704700BF00E100E00138B0F1807F0FD275
:101A80004FF0E0234FF0F00C0022072110B4054C7A
:101A9000586184F823C010469A6110BC19617047E0
:101AA0000120704700ED00E090F821200346022A53
:101AB00006D004229A630022012083F82020704778
:101AC0004FF0010C1A680020116821F00E0111601E
:101AD000116821F001011160D3E90F120CFA02F232
:101AE0004A60002283F821C083F82020704700BF9D
:101AF00090F821200346022A03D0042201209A6391
:101B00007047026810B511681C4821F00E01116081
:101B10001168824221F00101116024D018498A42E3
:101B20001DD014318A4220D014318A4220D0143181
:101B30008A4220D014318A420CBF4FF480124FF0F9
:101B40008072012100240F4842605A6B83F82110F3
:101B500083F820402AB118469047204610BD102235
:101B6000EFE7104610BD0122EBE74FF48072E8E783
:101B70004FF48052E5E74FF48032E2E7080002407C
:101B80001C000240000002402DE9F04F0E6883B0B7
:101B9000002E00F0B1800022744F92461346744D1F
:101BA000DFF8D08106E0013336FA03F402F10402D3
:101BB00000F0A28001249C4034EA060E04EA060CE0
:101BC000F1D14E68122E00F29A80122E1AD8DFE858
:101BD00006F0A3B9B5C31919191919191919191941
:101BE000191919B1AD00DFF890E1764500F0948045
:101BF0000EF5702E764500F08F80AEF5801E76458E
:101C000000F08A80BCF1FF0F9CBF864693464FF0E0
:101C10000F0684BF00F1040EA2F1200BDEF8004095
:101C20000AFA0BF906FA0BFB24EA0B0444EA09044E
:101C3000CEF800404C6814F0805F75D0D7F818E0FB
:101C400003F003094EF0010EC7F818E0D7F818E0CA
:101C50004FEA89090EF0010ECDF804E0DDF804E04A
:101C600023F0030E0EF1804E0EF5803EDEF808B034
:101C700006FA09F62BEA0606DFF800B158450FD040
:101C80000BF5806B584560D0DFF8F4B058450CBFB9
:101C90004FF0020B4FF0030B0BFA09F946EA090665
:101CA000CEF80860AE6814F4801F14BF46EA0C0634
:101CB00026EA0C06AE60EE6814F4001F14BF46EA74
:101CC0000C0626EA0C06EE606E6814F4003F14BFA2
:101CD00046EA0C0626EA0C066E6014F4803F2C6877
:101CE0001FD044EA0C042C600E68013336FA03F46A
:101CF00002F104027FF45EAF03B0BDE8F08F464509
:101D00000AD07FF670AFDFF87CE0764504D00EF5A0
:101D1000803E76457FF476AF8E6806BB4FF0040AAE
:101D200070E724EA0C042C600E683CE7CC6804F1F0
:101D30000C0A67E7CC6804F1040A63E7CC6804F195
:101D4000080A5FE7D1F80CA05CE74FF0010B0BFA33
:101D500009F946EA0906A3E74FF0000A52E7012E07
:101D60004FF0080A0CBF046144614BE700100240C9
:101D70000004014000002210000012100008014081
:101D800000100140000031108368194214BF012087
:101D90000020704702B9090401617047C36801EA75
:101DA000030221EA030141EA02410161704700BFD9
:101DB000044A5169014200D1704708B55061FFF7EC
:101DC00067F808BD00040140002800F0B6812DE945
:101DD000F04103680446DD0782B035D59A494A6868
:101DE00002F00C02042A00F0EF804A6802F00C02B4
:101DF000082A00F0E5806368B3F5803F10D0002B1F
:101E000000F00C81B3F5A02F00F082818E4B1A6890
:101E100022F480321A601A6822F480221A6004E0E8
:101E2000894A136843F480331360FFF7D9FA864E6A
:101E3000054605E0FFF7D4FA401B642800F2EA806B
:101E400033689A03F6D523689F0728D57E4A5168E0
:101E500011F00C0F00F08D80516801F00C01082981
:101E600000F083802369002B00F018810122774B5A
:101E7000754E1A60FFF7B4FA054605E0FFF7B0FAB1
:101E8000401B022800F2C68033689807F6D53368F5
:101E9000626923F0F80343EAC203336023681A0738
:101EA0001FD45D0742D5684BDA69D0007DD5002587
:101EB000674E3368D90540F19D80E368012B00F03F
:101EC000FE80002B00F0CA80052B5F4B1A6A00F0E1
:101ED0002C8122F001021A621A6A22F004021A62AC
:101EE000F2E0A369002B4FD00122584B564EC3F8A5
:101EF0008024FFF775FA054605E0FFF771FA401BED
:101F0000022800F28780736A9B07F6D5514B524A2C
:101F10001B68A2FB03235B0A019300BF019B5A1EAF
:101F20000192002BF9D123685D07BCD4E069C0B1F0
:101F3000454D6B6803F00C03082B00F0D88000229D
:101F4000424B02281A6600F0FA80FFF749FA04466D
:101F500004E0FFF745FA001B02285BD82B689B01C1
:101F6000F7D4002002B0BDE8F0815268D6033FF5F7
:101F700079AF354A1268950730D52269012A2DD0EC
:101F8000012002B0BDE8F081304A2F4EC2F8803403
:101F9000FFF726FA054604E0FFF722FA401B022865
:101FA00038D8736A9F07F7D4BDE7DA69012542F094
:101FB0008052DA61DB6903F080530093009B77E77E
:101FC0004A68D0037FF517AF1F4A126891037FF567
:101FD0003BAF6268002A7FF437AFD1E71A496069E6
:101FE0000A6822F0F80242EAC0020A601A077FF586
:101FF00058AF76E7336843F480733360FFF7F0F946
:1020000007463368DA053FF558AFFFF7E9F9C01B1B
:102010006428F6D9032002B0BDE8F0810A4D2B6890
:1020200023F480332B602B6823F480232B60FFF78D
:10203000D7F9064604E0FFF7D3F9801B6428E9D8F6
:102040002B689B03F7D4FEE60010024000004242DA
:102050000070004000000020D34D6210504E41F24D
:102060008838336A23F001033362336A23F00403B0
:102070003362FFF7B5F9074604E0FFF7B1F9C01B7B
:102080004045C7D8336A9807F7D4002D3FF44EAFC8
:10209000434AD36923F08053D36147E7414A404E16
:1020A0001360FFF79DF9054604E0FFF799F9401B1F
:1020B0000228AFD833689907F7D42368EFE6384A87
:1020C000136A43F001031362FFF78AF941F288387B
:1020D0000646334F04E0FFF783F9801B404599D84B
:1020E0003B6A9B07F7D5002D3FF420AFD0E70128CE
:1020F0003FF438AF6B68226A03F4803191427FF479
:102100003FAF606A03F47013181A18BF012029E763
:1021100003F18043A3F53C331A6842F480221A602D
:102120001A6842F480321A607FE642F004021A62B2
:102130001A6A42F001021A62C6E701207047FFF7EF
:102140004FF9064605E0FFF74BF9801B02283FF6E2
:1021500061AF2B689901F6D4236AB3F5803F05D1AE
:102160006A68A16822F400320A436A6001200C4DBB
:10217000616A6A680B4322F474120A4913436B6064
:102180000866FFF72DF9044605E0FFF729F9001B63
:1021900002283FF63FAF2B689A01F6D5E1E600BF73
:1021A0000010024000004242002800F0A180564A80
:1021B0002DE9F0411368044603F007038B420D46F6
:1021C0000CD2136823F007030B431360136803F06A
:1021D00007038B4202D00120BDE8F08123689E07EF
:1021E00014D5580704D549494A6842F4E0624A6068
:1021F000190704D545494A6842F460524A60434988
:10220000A0684A6822F0F00202434A60DA0720D54B
:1022100062683E4B012A1B686CD0022A65D09E077B
:10222000D9D53A4E41F28838736823F0030313433B
:102230007360FFF7D5F8074604E0FFF7D1F8C01B3D
:1022400040455AD87368626803F00C03B3EB820F01
:10225000F3D12D4A136803F00703AB4209D9136881
:1022600023F007032B431360136803F00703AB420B
:10227000B1D12368580706D52449E0684A6822F49A
:10228000E06202434A60190707D5204A2169536872
:1022900023F4605343EAC10353601C494A6802F0C7
:1022A0000C03082B10D01A4B184A1A4852681A49C6
:1022B000C2F30312805C194AC34008681360FFF739
:1022C0004DF80020BDE8F0811548C2F38343D203E6
:1022D000C35C14D50E484A6800FB03F31149C2F3EE
:1022E00040428A5CB3FBF2F3DEE79F0199D472E7C8
:1022F000012070479B0394D46DE703206CE70A4AE2
:1023000002FB03F3D0E700BF0020024000100240B0
:1023100000127A000C69000808000020000000206C
:10232000246900083469000800093D00044B054A8F
:102330005B680549C3F30223CB5C1068D840704743
:1023400000100240000000201C690008044B054AF0
:102350005B680549C3F3C223CB5C1068D840704763
:1023600000100240000000201C6900082DE9F04127
:102370000446006882B0C1072CD53A4BDA69D20016
:102380003FD5394D00262B68DF0548D5354D2B6AE2
:1023900013F4407311D0616801F440729A420DD079
:1023A000012700202B6A314A23F44071C2F840749F
:1023B000C2F840042962D90744D46168294A136AE3
:1023C00023F440730B4313621EB1D36923F080538F
:1023D000D3612068830706D52249A3684A6822F49E
:1023E00040421A434A6010F0100007D000201D4AF6
:1023F000E168536823F480030B43536002B0BDE8E7
:10240000F081DA69184D42F08052DA61DB69012609
:1024100003F080530193019B2B68DF05B6D42B6832
:1024200043F480732B60FEF7DBFF07462B68D8056B
:10243000ACD4FEF7D5FFC31B642BF7D9032002B041
:10244000BDE8F081FEF7CCFF41F28838074604E092
:10245000FEF7C6FFC01B4045F0D82B6A9A07F7D598
:10246000ABE700BF00100240007000400000424295
:10247000022808B505D0102826D001280CD000204D
:1024800008BDFFF763FF284B5B68C3F3813301335B
:102490005B00B0FBF3F008BD40F2023222490B6A48
:1024A0001A40B2F5817F2FD003F44073B3F5007F5B
:1024B0002DD0B3F5407FE2D14FF22443086810F4E9
:1024C000003018BF184608BD174B5A68186810F03E
:1024D0008070D5D01548C2F38341D203405C1ED52D
:1024E0005B68134AC3F34043D25C124BB3FBF2F375
:1024F00003FB00F00C4B5B685B02C1D40E4B400049
:10250000A3FB0030400808BD4FF4004008BD49F669
:102510004043486A10F0020018BF184608BD074B38
:1025200003FB00F0E6E700BF001002403869000836
:102530004869000800127A00ABAAAAAA00093D0067
:10254000002862D010B590F83D30044603F0FF0239
:10255000002B41D0022322682D4984F83D308A4265
:1025600013683ED0B2F1804F24D0A1F594318A4255
:1025700020D0A06923F080030343E16813606368FF
:10258000D16293620123536184F8463084F83E306F
:1025900084F83F3084F8403084F8413084F8423089
:1025A00084F8433084F8443084F8453084F83D3072
:1025B000002010BDA16823F0700320690B4323F4B1
:1025C0004073A169034323F08003E0680B43616813
:1025D0001360D0629162D5E780F83C20FEF79AFD47
:1025E000B8E7A06823F070032169034323F4407324
:1025F0000B43A16923F080030B431360E368D362AC
:102600006368936263691363BCE70120704700BF8E
:10261000002C0140704700BF002862D010B590F830
:102620003D30044603F0FF02002B41D00223226814
:102630002D4984F83D308A4213683ED0B2F1804F74
:1026400024D0A1F594318A4220D0A06923F08003E0
:102650000343E16813606368D162936201235361AD
:1026600084F8463084F83E3084F83F3084F84030B7
:1026700084F8413084F8423084F8433084F84430A0
:1026800084F8453084F83D30002010BDA16823F067
:10269000700320690B4323F44073A169034323F0C3
:1026A0008003E0680B4361681360D0629162D5E7F4
:1026B00080F83C20FFF7AEFFB8E7A06823F0700376
:1026C0002169034323F440730B43A16923F0800382
:1026D0000B431360E368D3626368936263691363B7
:1026E000BCE70120704700BF002C014019BB90F8E7
:1026F0003E30012B33D1022380F83E3001220368A3
:1027000001F01F01186A8A4020EA020010B4186222
:10271000196A204C0A43A3421A6222D0B3F1804FB7
:1027200023D01D4A934220D01A68002042F00102B3
:1027300010BC1A60704704291FD008290BD090F8EC
:102740004130012B0BD104291BD008291DD00223B5
:1027500080F84130D2E790F84030012B15D00120AD
:1027600070475A6C42F400425A649A6802F00702B9
:10277000062AD9D1002010BC704790F83F30012BB9
:10278000EDD1022380F83F30B8E7022380F84030D3
:10279000B4E700BF002C014000040040034690F85D
:1027A0003C00012800F0C5800120F0B483F83C0013
:1027B0000C2A08D8DFE802F03B0707076507070780
:1027C000920707070D00002283F83C200120F0BC8F
:1027D00070471A680E68106A146A20F4005024F4D6
:1027E000805414625568D46924F4E64444EA06240B
:1027F0008E6840EA0630684EB24200F0B8805560FC
:102800004D68D4610C6915641062D169002041F4EF
:102810000061D161D16921F48061D161D16941EA5E
:102820000421D161002283F83C20F0BC70471A6873
:102830000E68106A146A20F0020024F00104146289
:102840005568946924F0730434438E683043524EC3
:10285000B24270D055604D6894610C695563106246
:102860009169002041F008019161916921F0040112
:102870009161916921439161002283F83C20F0BC71
:1028800070471A680E68106A146A20F0200024F05D
:10289000100414625568946924F4E64444EA06245A
:1028A0008E6840EA06103C4EB24251D055604D68E9
:1028B00094610C69956310629169002041F4006194
:1028C0009161916921F480619161916941EA0421EA
:1028D0009161002283F83C20F0BC70471A680E68B2
:1028E000106A146A20F4007024F48074146255682D
:1028F000D46924F0730434438E6840EA0620264EDF
:10290000B2423AD055604D68D4610C69D56310620B
:10291000D169002041F00801D161D16921F00401A1
:10292000D161D1692143D161002283F83C20F0BC00
:10293000704702207047CE6820F00800304325F42D
:102940004075D1E905673E4320F00400354381E737
:10295000CE6820F0800040EA061025F44065D1E9F9
:1029600005673E4320F0400045EA86059EE74E6934
:1029700025F4804545EA861541E7CE6820F40060DD
:1029800040EA062025F44055D1E905673E4320F48E
:10299000806045EA0615B5E7002C014090F83C3010
:1029A000012B75D002460223012030B4146882F84E
:1029B0003C0082F83D30A36823F47F4323F0770383
:1029C000A3600B68602B65D024D8402B7CD04BD9FA
:1029D000502B17D100204B68CD68216A21F00A01E5
:1029E0001943236A23F001032362A36923F0F00350
:1029F00043EA0513A3612162A36823F0700343F047
:102A00005703A3600121002382F83D1082F83C3077
:102A100030BC7047B3F5805F38D0B3F5005F10D19C
:102A2000D1E90153A0682B43CD6820F47F4143EAEC
:102A300005230B43A360A368002043F48043A360F5
:102A4000E0E7702BDED1D1E90153A0682B43CD68BC
:102A500020F47F4143EA05230B43A360A3680020D1
:102A600043F07703A360CDE7202B02D00AD9302BA7
:102A7000C8D1A168002021F070010B4343F0070387
:102A8000A360BFE733F01001BCD1F2E70020B9E743
:102A900002207047236A4868CD68216A23F0A003AA
:102AA00021F010012162A16943EA001321F4704171
:102AB00041EA0531A1612362A368002023F070037D
:102AC00043F06703A3609DE74B68CD68216A00204F
:102AD00021F00A011943236A23F001032362A36949
:102AE00023F0F00343EA0513A3612162A36823F0F6
:102AF000700343F04703A36084E700BF90F83C20D5
:102B0000012A23D0034602201A6830B483F83D001E
:102B100050680C680E4D20F070002043AA42946863
:102B2000506005D0B2F1804F02D00A48824204D1F1
:102B3000496824F080040C4394600022012183F84A
:102B40003C2083F83D10104630BC7047022070478F
:102B5000002C014000040040002865D070B590F8BA
:102B60004130044603F0FF02002B55D0D4E9022681
:102B70002421236884F84110D968206921F4005188
:102B8000A56902436069D9601969024321F4405183
:102B900031431961D968254821F4B05121F00C0165
:102BA0000A43DA605A69834222F4407242EA05021B
:102BB0005A6136D0FFF7BAFB626800EB80039200DF
:102BC00003EB8303B3FBF2F34FF0640E00254FF0E9
:102BD000200C17482168A0FB036252090EFB123338
:102BE0001B013233A0FB0303120102EB53128A6074
:102BF0000B69284623F490430B614B6923F02A03A9
:102C00004B61CB6843F40053CB60656484F841C0EA
:102C100084F842C0656370BD80F84020FEF7B6FAC4
:102C2000A4E7FFF793FBC7E7012070470038014096
:102C30001F85EB512DE9F8431D4690F84130202BBC
:102C40006BD1884609B1174612B90120BDE8F88357
:102C500021234FF000090446C0F8449080F8413029
:102C6000FEF7BEFBA3680646B3F5805FA784E78442
:102C700056D0E38C9BB2002B7BD02368691C1BD100
:102C80001A681206FCD5B8F1000F41D018F8012BD4
:102C90005A60E28C013A92B2E284E28C92B2002A4B
:102CA000ECD1681C42D11A685106FCD5202384F867
:102CB00041300020BDE8F8831A681706E3D42DB12F
:102CC000FEF78EFB801B85422368D7D203F10C02EE
:102CD00052E8002F22F4D07203F10C0040E80021EA
:102CE0000029F3D103F1140252E8002F22F001026F
:102CF00003F1140040E800210029F3D1202384F8D7
:102D0000401084F8413084F842300320BDE8F88355
:102D100039F8022BC2F30802BAE70220BDE8F883B3
:102D20002369002BA5D1C1469846A2E71A6852062E
:102D3000BCD42DB1FEF754FB831B9D422368B0D257
:102D400003F10C0252E8002F22F4D07203F10C00C0
:102D500040E800210029F3D103F1140252E8002FCA
:102D600022F0010203F1140040E800210029F3D110
:102D7000C4E7236895E700BF90F84230202B1ED1AE
:102D800001B10AB90120704700234FF0220C816283
:102D9000016903638285C2854364036880F842C089
:102DA00019B1DA6842F48072DA605A69002042F0A0
:102DB00001025A61DA6842F02002DA6070470220AC
:102DC000704700BF704700BF704700BF08B50023C1
:102DD000406AC385C384FFF7F7FF08BD704700BF93
:102DE0008368B3F5805F45D0826A002B3AD00368D0
:102DF0005B6803F07F031370826A0132C38D8262C5
:102E0000013B9BB2C385002B33D14FF0200C0268ED
:102E100000B5D16883B021F02001D160D16821F4E0
:102E20008071D160516921F00101516180F842C087
:102E30004363016B012927D1036302F10C0353E8BB
:102E4000003F23F0100302F10C0C4CE80031002984
:102E5000F3D11368DB0621D4818DFFF7BFFF03B0E8
:102E60005DF804FB0369002BC1D103685B68137034
:102E7000C2E77047036963B90368826A5B68C3F39A
:102E8000080322F8023BB9E7FEF73CF803B05DF80F
:102E900004FB0368826A5B681370ADE7002301934B
:102EA0001368019353680193019BD5E730B503681C
:102EB00004461A6883B012F00F0FD9685D696FD1AC
:102EC000950602D58D0600F1B380206B01280BD04A
:102ED000100602D50D0600F1B580500602D54A064F
:102EE00000F1CF8003B030BDD506F1D5C806EFD5CF
:102EF000002201921A6801925A680192019A5A6955
:102F0000550640F11881E06B0268526892B2002ABF
:102F1000E8D0A18D9142E5D9E2858269202A36D098
:102F200003F10C0252E8002F22F4807203F10C0529
:102F300045E800210029F3D103F1140252E8002FE3
:102F400022F0010203F1140545E800210029F3D124
:102F500003F1140252E8002F22F0400203F114059D
:102F600045E800210029F3D1202284F84220216382
:102F700003F10C0252E8002F22F0100203F10C05BD
:102F800045E800210029F3D1FEF78EFDA18D022333
:102F90006363E38D2046C91A89B2FFF71FFFA1E7DB
:102FA00005F0010501F4907028438ED0D00705D5B7
:102FB000C80503D5606C40F001006064500732D54D
:102FC0004DB1606C40F002006064900703D5606C06
:102FD00040F004006064100707D501F0200028438A
:102FE00003D0606C40F008006064606C00283FF41F
:102FF00079AF900609D5890607D594F84220222A90
:1030000003D12046FFF7ECFE23685A69616C02F099
:10301000400201F0080152EA01053DD12046FFF7C8
:10302000D3FE65645EE79007D5D5002DCFD1D2E7FA
:1030300090F84230222B7FF455AF03B0BDE830400A
:10304000FFF7CEBE94F84120212A7FF44BAFA2684F
:10305000B2F5805F00F0AA80226A511C21621278CA
:103060005A60E28C013A92B2E284002A7FF43AAFCD
:10307000DA6822F08002DA60DA6842F04002DA6050
:1030800030E72021DA68204622F04002DA6084F836
:103090004110FFF797FE25E703F10C0252E8002FDD
:1030A00022F4907203F10C0040E800210029F3D1D2
:1030B00003F1140252E8002F22F0010203F1140080
:1030C00040E800210029F3D1226B012A22D00022FE
:1030D000202184F8421022635A69520627D503F151
:1030E000140252E8002F22F0400203F1140040E8DD
:1030F00000210029F3D1E06BC8B1324B4363FEF7E6
:10310000F7FC00283FF4EEAEE06B436B03B0BDE884
:103110003040184703F10C0252E8002F22F0100251
:1031200003F10C0040E800210029F3D1CFE720464D
:10313000FFF74AFED6E6E18DE28DA08D92B289B20C
:10314000002A3FF4CFAE411A89B200293FF4CAAE3B
:1031500003F10C0252E8002F22F4907203F10C05E7
:1031600045E800200028F3D103F1140252E8002FB3
:1031700022F0010203F1140545E800200028F3D1F4
:10318000202284F84220206303F10C0252E8002F31
:1031900022F0100203F10C0545E800200028F3D1CD
:1031A000022320466363FFF719FE9BE62269002A8B
:1031B0007FF452AF226A32F8021BC1F30801596052
:1031C00022624EE7CD2D0008002B2DE9F0471F4667
:1031D000BBBF03F100431F4600232D2388B01446D4
:1031E000129A109D1370149BDDF84CA023F0200858
:1031F000B8F1460F05D0B8F1450F00D101350223D3
:1032000000E0032307AA049206AACDE902A2CDE9B1
:10321000003522463B4600F0BFFEB8F1470F064698
:1032200002D1119BDB0722D5B8F1460F06EB050949
:1032300010D13378302B0AD10022002320463946A2
:10324000FDF7B2FB18B9C5F10105CAF80050DAF86C
:10325000003099440022002320463946FDF7A4FBA4
:1032600008B1CDF81C903022079B4B4507D3304660
:10327000079B159A9B1B136008B0BDE8F087591C8B
:1032800007911A70F0E70346F7B5002903F8022BFF
:10329000B6BF2D222B224942092942702ADD0DF1A9
:1032A000070217460A2691FBF6F5944606FB15140D
:1032B00030340CF8014C0C46632C294602F1FF32E5
:1032C000F1DC3031ACF1020402F8011C2246411C51
:1032D000BA420AD30DF10902A2EB0C02BC4288BF2C
:1032E00000221344181A03B0F0BD12F8015B01F874
:1032F000015FEDE7302330318370C170031DF1E7CA
:103300002DE9F04F91B00C46DDF8688016461F4657
:10331000054600F033FD036818460993FCF718FFD3
:1033200000230E93D8F800300A90073323F00703E8
:1033300003F1080294F81890D4F800B0C8F80020FF
:10334000D3E900A852464346C4E9122328F00043BB
:103350000B934FF0FF3250469C4B0B99FDF756FBF9
:1033600070BB4FF0FF325046984B0B99FDF730FB86
:1033700030BB0022002350464146FDF71FFB10B131
:103380002D2384F84330924A924BB9F1470F94BFF2
:103390009046984603234FF0000A23612BF0040364
:1033A000236033462146284600970FAA00F0D6F93D
:1033B000013040F090804FF0FF3011B0BDE8F08F49
:1033C0005246434650464146FDF720FB48B1B8F10E
:1033D000000FB8BF2D23804AB8BF84F843307F4B1D
:1033E000D3E7636809F0DF015A1C42D1062363600A
:1033F000002206920EAACDE904920DAA4BF4806336
:1034000003920DF13302CDE9013223606368524625
:103410000093284643460B91FFF7D6FE0B99804652
:1034200047290D9908D1C81C02DB6368994240DD29
:10343000A9F102095FFA89F9B9F1650F1FD84A4667
:10344000013904F150000D91FFF71DFF0E9A8246DD
:103450001318012A236102DC2268D20701D5013347
:1034600023619DF83330002B9BD02D2384F843300B
:1034700097E74729BCD1002BBAD10123B7E7B9F1AF
:10348000660F18D1002963680BDD216113B922682A
:10349000D00702D501330B4423614FF0000AA16528
:1034A000DFE713B92268D20701D50233F4E701231D
:1034B000F2E74FF067090E9B994205DB2368216113
:1034C000D807EAD54B1CE7E70029CCBF0122C1F1A0
:1034D00002021344E0E723685A0507D423694246F1
:1034E00031462846B84701302BD164E7B9F1650F62
:1034F00040F2DD80D4E9120100220023FDF754FAE6
:10350000002833D0012331462846354AB8470130D8
:103510003FF451AFDDE90D239A4202DB2368D8075F
:103520000FD5DDE9092331462846B84701303FF47D
:1035300042AF4FF0000804F11A090E9B013B4345CE
:1035400009DC23689B0700F10481E0680F9B984227
:10355000B8BF184631E701234A4631462846B847E6
:1035600001303FF428AF08F10108E6E70D9B002B7E
:1035700038DC012331462846194AB84701303FF468
:103580001AAFDDE90D32134302D12368D907D8D52C
:10359000DDE9092331462846B84701303FF40BAF37
:1035A0004FF0000904F11A0A0D9B5B424B4501DC08
:1035B0000E9B94E70123524631462846B847013016
:1035C0003FF4F9AE09F10109EEE700BFFFFFEF7F1D
:1035D0004A6900084E6900085269000856690008E7
:1035E0008B6B00080E9AA36D9A42A8BF1A46002A58
:1035F000914637DC4FF0000B29EAE97904F11A0211
:10360000D4F858A0AAEB09035B4533DCDDE90D23B0
:103610009A423BDB2368DA0738D4DDE90D32A2EBAE
:103620000309A2EB0A029145A8BF9146B9F1000F28
:1036300034DC4FF0000829EAE97904F11A0ADDE9DF
:103640000D239B1AA3EB090343457FF77AAF0123B0
:10365000524631462846B84701303FF4ACAE08F137
:103660000108ECE71346314642462846B847013088
:10367000C0D1A0E60123314628460B92B84701305D
:103680003FF499AE0B9A0BF1010BB9E73146DDE936
:1036900009232846B8470130BFD18CE64B46314656
:1036A000284608EB0A02B8470130C2D183E60E9AD9
:1036B000012A01DCDB0739D5012342463146284681
:1036C000B84701303FF477AEDDE90923314628469B
:1036D000B84701303FF46FAED4E912010022002355
:1036E000DDF83890FDF760F9D8B909F1FF3308F13A
:1036F000010231462846B84701300ED15BE601236E
:103700004A4631462846B84701303FF454AE08F1E6
:1037100001080E9B013B4345F1DC534604F1500286
:10372000DEE64FF0000804F11A09F2E701234246F1
:10373000DFE701234A4631462846B84701303FF4C7
:103740003AAE08F10108E3680F995B1A4345F0DCD3
:10375000FBE64FF0000804F11909F4E72DE9F04702
:10376000164699468A680B6907469342B8BF1346C6
:10377000336091F843200C46DDF820800AB1013314
:1037800033602368990642BF33680233336025688B
:1037900015F0060506D104F1190AE36832689B1A90
:1037A000AB422BDC94F84320131E226818BF012380
:1037B000920630D44946384604F14302C0470130EE
:1037C00023D02368226903F00603042B14BF0025CD
:1037D00033684FF0000608BFE56804F11A0408BF1B
:1037E000ED1A54F8123C08BF25EAE5759342C4BFB0
:1037F0009B1AED18B5421AD1002008E00123524669
:1038000049463846C047013003D14FF0FF30BDE88C
:10381000F0870135C1E73020E11881F843005A1CD8
:1038200094F845102244023382F84310C2E7012382
:10383000224649463846C0470130E6D00136D9E72E
:103840002DE9FF470F7E9146782F80460C469A4619
:103850000C9D01F1430207D8622F0AD8002F00F017
:10386000D580582F00F0C18004F1420584F84270E1
:103870003AE0A7F16303152BF6D801A151F823F024
:10388000D9380008ED3800086938000869380008A0
:103890006938000869380008ED3800086938000800
:1038A000693800086938000869380008F3390008E9
:1038B00019390008AD39000869380008693800086E
:1038C000153A0008693800081939000869380008F5
:1038D00069380008B53900082B681A1D1B682A6072
:1038E00004F1420584F842300123A0E020682B68EF
:1038F000070603F10401296001D51E6803E04606AE
:10390000FBD5B3F90060002E03DA2D23764284F84C
:1039100043300A23594812E02B682068191D29609A
:10392000050601D51E6802E04106FBD51E886F2FF3
:103930000CBF08230A235148002184F8431065680E
:10394000002DA8BF2168A560A4BF21F0040121605B
:103950000EB9002D4BD01546B6FBF3F103FB1167F2
:10396000C75D05F8017D3746BB420E46F4D9082BEA
:103970000BD12368DE0708D5236961689942DEBF51
:10398000302305F8013C05F1FF35521B22614B46FF
:1039900021464046CDF800A003AAFFF7DFFE013024
:1039A0004AD14FF0FF3004B0BDE8F087236843F000
:1039B000200323607827324884F8457023682968FB
:1039C0001F0651F8046B02D45F0648BFB6B2DF078A
:1039D00048BF43F02003296048BF23601EB9236815
:1039E00023F0200323601023A6E72448E4E71546CC
:1039F000BDE72B682668181D6169286035061B68BD
:103A000001D5196002E07006FBD519800023154628
:103A10002361BCE72B6800211A1D2A601D686268BB
:103A2000284600F021FA08B1401B606063682361FA
:103A3000002384F84330AAE72A46494640462369D2
:103A4000D0470130ADD023689B0713D4E068039BB7
:103A50009842B8BF1846A6E7012332464946404679
:103A6000D04701309DD00135E36803995B1AAB4222
:103A7000F2DCEBE7002504F11906F5E75A690008C6
:103A80006B690008002310B50446C0E90033C0E9A3
:103A90000433836081814366C281836119460822B1
:103AA0005C3000F062F9054B24626362044BA36250
:103AB000044BE362044B236310BD00BFE13C0008EC
:103AC000073D00083F3D0008633D0008024A0349E6
:103AD000034800F069B800BF0C000020395E000800
:103AE0001800002041680C4B10B59942044601D0E3
:103AF00002F0A2F9A168094B994202D0204602F0D7
:103B00009BF9E168064B994204D02046BDE810407D
:103B100002F092B910BD00BF340300209C030020C6
:103B20000404002010B50B4B0B4C0C4A20461A60C5
:103B300004210022FFF7A6FF04F1680001220921F9
:103B4000FFF7A0FF04F1D0000222BDE810401221CF
:103B5000FFF798BF6C04002034030020CD3A000822
:103B6000014800F07FB900BF75040020014800F053
:103B70007AB900BF7504002010B50446FFF7F0FFC6
:103B8000236A1BB1BDE81040FFF7F0BF044B23626E
:103B9000044B1B68002BF5D1FFF7C4FFF2E700BF11
:103BA000E53A00086C0400202DE9F84307468846F2
:103BB00014460026D4E90195B9F1010905D5246818
:103BC000002CF7D13046BDE8F883AB89012B07D92B
:103BD000B5F90E30013303D029463846C0470643B5
:103BE0006835E9E70CB430B5174B0C1E1D689DB065
:103BF00008DA8B234FF0FF302B601DB0BDE830405A
:103C000002B070474FF40273ADF814300CBF234676
:103C100004F1FF33049307934FF6FF73029006906D
:103C2000ADF81630284621AB209A02A9019301F085
:103C300065FC431CBCBF8B232B60002CDDD0002215
:103C4000029B1A70D9E700BF640000200EB46FF029
:103C5000004100B59CB01DAB029006900791049105
:103C60000848094953F8042B0591006802A90193FB
:103C700001F044FC0022029B1A701CB05DF804EBBA
:103C800003B07047640000200802FFFF0EB44FF439
:103C9000017230B59CB01FAC54F8045BADF8142031
:103CA00002900690FCF754FA0B4B03900B93002301
:103CB0000F9314934FF6FF7307900848ADF8163032
:103CC0002A46234602A90068019401F06FFD1CB04A
:103CD000BDE8304003B07047033D00086400002099
:103CE00010B50C46B1F90E1000F06EF80028ABBF0D
:103CF000636DA3891B1823F48053ACBF6365A38154
:103D000010BD002070472DE9F0411F468B89054604
:103D1000DB050C46164605D502230022B1F90E102C
:103D200000F040F8A389324623F48053A38128464B
:103D30003B46B4F90E10BDE8F04100F057B810B59D
:103D40000C46B1F90E1000F02DF8431CA38915BFE5
:103D5000606523F4805343F48053A38118BFA3818B
:103D600010BDB1F90E1000F00DB8034602449342A5
:103D700000D1704703F8011BF9E7000000487047C5
:103D80005801002038B50023054D044608462B6035
:103D9000FDF78AFA431C02D12B6803B1236038BDBA
:103DA0007004002038B50446084611460022054D2F
:103DB0002A601A46FDF784FA431C02D12B6803B12E
:103DC000236038BD7004002038B50446084611460B
:103DD0000022054D2A601A46FDF74AFA431C02D11B
:103DE0002B6803B1236038BD7004002038B5044649
:103DF000084611460022054D2A601A46FDF746FA8C
:103E0000431C02D12B6803B1236038BD700400202D
:103E1000014B1868704700BF6400002070B5002691
:103E20000C4D0D4C641BA410A64209D102F00CFDF0
:103E300000260A4D0A4C641BA410A64205D170BD91
:103E400055F8043B98470136EEE755F8043B984790
:103E50000136F2E7D86C0008D86C0008D86C00086E
:103E6000DC6C000870477047034610B5C9B20244C5
:103E70009342184601D1002003E0047801338C42BC
:103E8000F6D110BD2DE9F74F03690C690746A3422F
:103E90007FDB013C00F1140501F1140805EB8403FC
:103EA000019358F8243055F8242001339A42B2FB8C
:103EB000F3F64FEA840B08EB840931D34FF0000E80
:103EC0004046AC46F24650F8042B93B206FB03E39F
:103ED0004FEA124E1A0C9BB206FB0E22AAEB03030A
:103EE000DCF800A04FEA124E1FFA8AFA5344DCF8BD
:103EF00000A092B2C2EB1A4202EB23429BB243EA09
:103F0000024381454FEA224A4CF8043BDBD255F884
:103F10000B302BB9019B043B9D421A462DD33C61CB
:103F2000384601F093F9002823DB294600200136AA
:103F300058F8042BD1F800C093B2C31A120C1FFA20
:103F40008CF00344C2EB1C4202EB23429BB243EAD7
:103F50000243C1454FEA224041F8043BE8D255F8FC
:103F6000242005EB840322B9043B9D421A460AD360
:103F70003C61304603B0BDE8F08F1268043B002A74
:103F8000CDD1013CC8E71268043B002AF0D1013CC6
:103F9000EBE70020EEE700002DE9F04F16461F4644
:103FA000C46999B00546CDE90467DDF8948074B919
:103FB000102000F01DFE0246E86120B9EF21AC4B55
:103FC000AC4802F00BF8C0E901440460C460EB693E
:103FD000196851B15A68012393404A608B602846A2
:103FE00000F0FAFE0022EB691A603B1EAFBF00230F
:103FF000012223F000430593A8BFC8F80030DDF884
:1040000014909D4BB8BFC8F8002033EA090319D1BA
:1040100042F20F73249A1360C9F31303334300F081
:104020008985269B53B9954B23E0954B0393083321
:10403000269A1360039819B0BDE8F08F8F4B039355
:104040000333F5E7DDE90434CDE90C34DDE90C0197
:1040500000220023FCF7A8FC804660B10123249ACB
:104060001360269B002B00F06285864B269A136016
:10407000013B0393DEE716AB019317AB0093284691
:10408000DDE90C2301F08AF9C9F30A548246002CB9
:104090007ED0DDE90C010D9BA4F2FF34C3F31303C2
:1040A00043F07F5343F44013CDF84C80194600226F
:1040B000754BFCF759F868A3D3E90023FCF70CFA19
:1040C00067A3D3E90023FCF751F8064620460F46C4
:1040D000FCF798F964A3D3E90023FCF7FDF9024645
:1040E0000B4630463946FCF741F806460F46FCF7CA
:1040F000A3FC00228346002330463946FCF75EFCD1
:1041000048B15846FCF77EF932463B46FCF74CFC7A
:1041100008B90BF1FF3BBBF1160F57D8DDE90C01D5
:104120005A4B03EBCB03D3E90023FCF747FC0028F1
:104130004ED000230BF1FF3B0F93169B1B1B5A1E07
:1041400046BFC3F1010900234FF00009099248BF9F
:104150000993BBF1000F3DDB099BCDF838B05B4400
:10416000099300230A93229B092B67D8052BC4BF10
:10417000043B2293229BC8BF0024A3F10203D8BFB3
:104180000124032B00F28680DFE803F02C39375638
:10419000DDE916431C4404F23243202BC1BFC3F1B6
:1041A000400309FA03F904F2124326FA03F3D6BFD7
:1041B000C3F1200349EA030006FA03F0FCF712F901
:1041C0000122A1F1F873013C13926FE70123B3E7D9
:1041D0000F90B2E7CBF100030A930023A9EB0B0980
:1041E0000E93C0E700230B93239B002B55DC012388
:1041F0001A460693089323920BE00123F3E700236A
:104200000B93239B5B4406930133012B0893B8BFA8
:10421000012300210422E86902F114069E4240D9DC
:104220004160284600F098FD039000283CD10246EA
:1042300040F2AF11164BC3E60123E1E7012400234E
:104240000B9422934FF0FF3300220693089312231E
:10425000D1E700BFAFF3008061436F63A787D23F10
:10426000B3C8608B288AC63FFB799F501344D33F65
:1042700089690008A06900080000F07F85690008CE
:104280007C6900088C6B00080000F83F906A000809
:10429000F869000801230B93D4E7239B0693089346
:1042A000B7E701315200B7E7EB69039A1A60089B40
:1042B0000E2B00F2A880002C00F0A580BBF1000FAF
:1042C00034DD9A4B0BF00F0203EBC2031BF4807F2B
:1042D000D3E90034CDE910344FEA2B1416D0DDE9D0
:1042E0000C01934B0327D3E90823FCF71FFACDE910
:1042F000040104F00F048E4E54B9DDE91023DDE90A
:104300000401FCF713FACDE9040129E00227F2E7E2
:10431000E10708D5DDE91001D6E90023FCF7DCF858
:10432000CDE91001013764100836E5E700F0A580FB
:10433000DDE90C01CBF100047C4B04F00F0203EB30
:10434000C203D3E90023FCF7C7F802270023CDE915
:104350000401774E2411002C40F08480002BD2D130
:10436000DDE90434CDE910340F9B002B00F0878089
:10437000DDE9100100226F4BFCF720FB00287ED006
:10438000089B002B7BD0069B002B38DDDDE910015C
:104390000022694BFCF7A0F8CDE90401069C0BF163
:1043A000FF3801373846FCF72DF8DDE90423FCF728
:1043B00093F80022614BFBF7D9FEA1F15076CDE9CD
:1043C00010011196002C5DD1DDE9040100225C4B47
:1043D000FBF7CAFE02460B46CDE904233346109A8A
:1043E000FCF70AFB002840F09582DDE90401109AF1
:1043F00006F10043FCF7E2FA002840F08982DDE98B
:104400000C34CDE90434179B002BC0F25181BBF171
:104410000E0F00F34D81454B03EBCB03D3E9003482
:10442000CDE90634239B002B80F2DA80089B002B19
:1044300000F3D68040F06B82DDE906010022404B9C
:10444000FCF74AF8DDE90423FCF7CCFA089C264681
:10445000002840F041823123039F0BF1010B07F844
:10446000013B3DE2E20705D5D6E90023FCF734F82D
:1044700001230137641008366DE7022770E7D8463C
:10448000089C8FE70399294B214412910B9903EB68
:10449000C403DDE9106753E90223002954D000204A
:1044A0002849FCF743F93B463246FBF75DFECDE970
:1044B0001001039FDDE90401FCF7BEFA0446FBF797
:1044C000A1FF02460B46DDE90401FBF74DFE024663
:1044D0000B463034CDE90423DDE9102307F8014B06
:1044E000FCF76CFA002873D1DDE9042300201149A0
:1044F000FBF73AFEDDE91023FCF760FA002840F0F4
:10450000B680129B9F423FF47AAFDDE91001002292
:10451000094BFBF7E1FF0022CDE91001DDE90401C1
:10452000054BFBF7D9FFCDE90401C3E7906A00080A
:10453000686A00080000F03F0000244000001C40B2
:10454000000014400000E03F30463946FBF7C4FF4E
:10455000129BCDE91001039C1493DDE90401FCF7E3
:104560006BFA1590FBF74EFF02460B46DDE904019E
:10457000FBF7FAFD159B0646303304F8013B129B0E
:104580000F469C424FF0000224D1DDE91001AF4BF1
:10459000FBF7ECFD02460B4630463946FCF72CFA99
:1045A000002863D1DDE910230020A849FBF7DCFDDA
:1045B00002460B4630463946FCF700FA00283FF425
:1045C0001EAF149F7B1E149317F8013C302BF8D0BC
:1045D000C3463BE09E4BFBF77FFFCDE90401BCE700
:1045E000039FDDE90489DDE9062340464946FCF7DF
:1045F0009DF8FCF721FA0446FBF704FFDDE90623EA
:10460000FBF76AFF02460B4640464946FBF7ACFD06
:1046100004F1300607F8016B039EDDF820C0BE1BD5
:10462000B44502460B4636D1FBF7A0FDDDE9062373
:1046300080468946FCF7E0F958BBDDE90623404691
:104640004946FCF7B1F908B1E30722D451462846A0
:1046500000F0C2FB0023249A3B700BF101031360AE
:10466000269B002B3FF4E6AC1F60E3E427463B4665
:104670001F4613F8012D392A07D1039A9A42F7D120
:104680003022039908F101080A701A7801321A7071
:104690009EE7D846EBE700226D4BFBF71DFF00229B
:1046A000002380468946FCF77FF900289BD0CDE7A0
:1046B0000B9A002A00F0C480229A012A00F3A880F5
:1046C000139A002A00F0A08003F233434F460A9C5D
:1046D000099A01211A4428469944099200F032FCB3
:1046E00006465FB1099B002B08DDBB42A8BF3B46D5
:1046F000099AA9EB0309FF1AD31A09930A9BF3B18C
:104700000B9B002B00F0A080002C10DD31462246D0
:10471000284600F0D5FC524601460646284600F0E1
:1047200027FC80465146284600F056FBC2460A9BAD
:104730001A1B04D05146284600F0C2FC82460121D3
:10474000284600F0FFFB0E9B0446002B40F38280BE
:104750001A460146284600F0B3FC229B0446012B72
:104760007BDD4FF00008236904EB8303186900F038
:104770009BFBC0F12000099B184410F01F0000F0C3
:104780009280C0F12003042B40F38580099BC0F187
:104790001C000344814407440993B9F1000F05DD6F
:1047A00051464A46284600F0E5FC8246099B002B0C
:1047B00005DD21461A46284600F0DCFC04460F9B26
:1047C000002B72D02146504600F040FD00286CDAE4
:1047D000002351460A22284600F020FB0B9B82460C
:1047E0000BF1FF3B002B00F0AC81002331460A2285
:1047F000284600F013FB069B0646002B00F393802F
:10480000229B022B59DC8EE0169BC3F136035DE739
:10481000089B5C1E0A9BA342BFBF0A9B0E9AE31A29
:10482000D218A8BF1C1B089BBEBF0A940E9200247E
:10483000002BB5BFA9EB03074F460023089B47E7B2
:104840004F460A9C0B9E4CE70A9A73E70000E03F34
:1048500000002440229B012B18DC049BB3B9059B6C
:10486000C3F3130393B9059B23F000431B0D1B05F2
:104870007BB14FF00108099B09F10109013309934C
:104880000E9B002B7FF46FAF012074E74FF0000800
:10489000F6E79846F4E780D0099A1C331A44994405
:1048A0001F44099279E70346F6E7089B002B34DCA6
:1048B000229B022B31DD089B0693069B63B92146A0
:1048C0000522284600F0AAFA01460446504600F0A8
:1048D000BDFC00283FF7BFAD239B039F6FEA030B8E
:1048E0004FF000082146284600F076FA002E3FF4EB
:1048F000ADAEB8F1000F05D0B04503D04146284613
:1049000000F06AFA3146284600F066FA9EE6002476
:104910002646E1E7C34626469DE50B9B002B00F0AB
:10492000C880089B0693002F05DD31463A4628468D
:1049300000F020FC0646B8F1000F5BD028467168F5
:1049400000F00AFA074628B9024640F2EF21814BEF
:10495000FFF736BB326906F10C01023292000C30CF
:1049600001F02EFB01223946284600F003FCB04638
:104970000646039B039A01330893069B13440B934B
:10498000049B03F001030A93089B2146013B504618
:104990000493FFF777FA4146069000F1300950463C
:1049A00000F054FC324609902146284600F06AFC8B
:1049B000C268074602BB0146504600F047FC02466B
:1049C000394628460C9200F007FA229B0C9A089F61
:1049D00043EA02010A9B194310D1B9F1390F29D0DA
:1049E000099B002B02DD069B03F13109049B83F830
:1049F000009077E73046BAE70122E1E7099B002BF8
:104A000004DB22990B430A990B4320D1002AEDDDE8
:104A100051460122284600F0ADFB2146824600F0B7
:104A200015FC002803DCE1D119F0010FDED0B9F14B
:104A3000390FD8D13923049A13703B461F4617F813
:104A4000012C013B392A6BD001321A704AE7002A47
:104A500007DDB9F1390FEDD0049A09F101031370A4
:104A600040E7089B0B9A03F8019C934242D05146C1
:104A700000230A22284600F0D1F9B04582464FF0C3
:104A800000034FF00A024146284607D100F0C6F95C
:104A900080460646089B0133089375E700F0BEF98F
:104AA0003146804600230A22284600F0B7F9064620
:104AB000F0E7089B0693039F21465046FFF7E2F973
:104AC000039B00F1300907F8019BFA1A069B9342F9
:104AD00007DD514600230A22284600F09FF982464E
:104AE000EAE7069B4FF00008002BCCBF1F460127CA
:104AF000039B1F4451460122284600F03BFB214600
:104B0000824600F0A3FB002897DC02D119F0010FC8
:104B100093D13B461F4613F8012D302AFAD0E1E627
:104B2000039A9A428AD131230BF1010B97E70A4B82
:104B3000FFF79FBA269B002B7FF477AA074BFFF75E
:104B400098BA069B002BB6DC229B022B3FF7B5AE32
:104B5000B1E700BFF86900088B6B00087C690008AA
:104B600038B50546002940D051F8043C0C1F002BF5
:104B7000B8BFE41800F0E4F81C4A136833B9636066
:104B800014602846BDE8384000F0E0B8A34208D9D8
:104B9000206821188B4201BF19685B6809182160E1
:104BA000EDE71A465B680BB1A342FAD911685018B9
:104BB000A0420BD120680144501883421160E0D11B
:104BC00018685B68084410605360DAE702D90C2368
:104BD0002B60D6E7206821188B4201BF19685B68FB
:104BE0000918216063605460CBE738BD7804002069
:104BF000024B0146186800F023B800BF6400002093
:104C000070B50E4E0C463168054611B901F0C8F971
:104C100030602146284601F0C3F9431C0AD0C41C69
:104C200024F00304A04207D0211A284601F0B8F965
:104C3000013001D14FF0FF34204670BD7C040020CC
:104C40002DE9F843CD1C25F0030508350C2D38BFA0
:104C50000C25002D074601DBA94205D90C230026AF
:104C60003B603046BDE8F883DFF8D08000F068F89C
:104C7000D8F800301C465CBB29463846FFF7C0FF19
:104C8000431C044655D1D8F800402646002E45D195
:104C9000002C48D023683146384604EB030901F064
:104CA0007FF981453FD1216838466D1A2946FFF7C3
:104CB000A7FF013037D023682B442360D8F8003099
:104CC000002B38D05A68A2422BD100225A600FE044
:104CD0002268521B1FD40B2A17D96119A3422560E1
:104CE00018BF5960636808BFC8F8001062514B6074
:104CF000384604F10B0600F029F826F00706231DBC
:104D0000F21AAED09B1BA350ABE7A3426268DDD181
:104D1000C8F80020ECE723466468ACE734467668C0
:104D2000B4E71346CCE70C2338463B6000F00EF89E
:104D300097E72560DCE75B60FFDE00BF78040020BA
:104D40000148FFF78FB800BF740400200148FFF747
:104D50008AB800BF7404002070B5C66904460D46C9
:104D600076B91020FFF744FF0246E06120B96B21BD
:104D7000174B184801F032F9C0E901660660C660B9
:104D8000E669F36883B1E369DB6853F82500B8B9D5
:104D9000012101FA05F6721D2046920001F03CF94E
:104DA00060B1C0E901560EE021220421204601F045
:104DB00033F9E369F060DB68002BE4D1002070BDBB
:104DC000026843F825200023C0E90333F7E700BF5A
:104DD00089690008096A000870B5C66905460C466D
:104DE00076B91020FFF704FF0246E86120B98F2151
:104DF000084B094801F0F2F8C0E901660660C66098
:104E00003CB1EB696268DB6853F82210216043F81B
:104E1000224070BD89690008096A00082DE9F04147
:104E200007460C461E4600200D6901F1140CDCF803
:104E30000030013099B202FB01611E0C0B0C02FB29
:104E4000063389B201EB034185424FEA13464CF821
:104E5000041BECDC0EB3A368AB4219DC6168384676
:104E60000131FFF779FF804628B90246BA210C4B81
:104E70000C4801F0B3F8226904F10C0102329200EF
:104E80000C3001F09DF821463846FFF7A5FF444657
:104E900004EB850301355E6125612046BDE8F081A4
:104EA000F8690008096A0008020C12040346CAB92E
:104EB0000304102013F07F4F04BF1B02083013F0CF
:104EC000704F04BF1B01043013F0404F04BF9B0020
:104ED0000230002B05DB13F0804F00F1010008BF0A
:104EE000202070470020E5E70368024613F0070022
:104EF0000BD0D90721D4980749BF5B089B08012034
:104F000013605CBF02201360704799B209B910208A
:104F10001B0CD9B209B908301B0A190704BF1B09B9
:104F20000430990704BF9B080230D90703D45B08FB
:104F300000F1010003D0136070470020704720206B
:104F40007047000010B50C460121FFF705FF02462F
:104F500028B940F24511044B044801F03FF8012301
:104F60004461036110BD00BFF8690008096A0008C8
:104F70002DE9F04F91460A69D9F810300C469A4253
:104F8000BEBF0B464C4699462769D9F810A0A368C6
:104F9000616807EB0A06B34285B0B8BF0131FFF77D
:104FA000DBFE30B902464FF4B171434B434801F088
:104FB00015F800F114052B46002205EB8608434541
:104FC00021D304F1140303EB870709F1140303EB66
:104FD0008A0202923A1B153A22F00302043204F1CB
:104FE00015018F4238BF04220192029A03939A421C
:104FF0000CD8002E03DD58F8043D002B5AD0066172
:1050000005B0BDE8F08F43F8042BD8E7B3F800A053
:10501000BAF1000F23D0A9464FF0000C04F1140E92
:105020005EF8042BD9F800101FFA82FB89B20AFB44
:105030000B116144D9F800C0120C4FEA1C4C0AFB5A
:1050400002C202EB114289B241EA024177454FEABE
:10505000124C49F8041BE3D8019A45F802C0039AA0
:105060000433B2F80290B9F1000F21D0AE464FF0F0
:10507000000A296804F1140CBCF800B0BEF8022044
:1050800089B209FB0B22524441EA02414EF8041B4B
:105090005CF8041B4FEA114ABEF80010674509FB93
:1050A0000A1101EB12414FEA114AE5D8019AA950C1
:1050B00004359AE7013E9CE7F8690008096A000890
:1050C0002DE9F843154612F0030206460F4607D0B5
:1050D000254C013A002354F82220FFF79FFE074693
:1050E000AD103DD0F4697CB91020FFF781FD024678
:1050F000F06128B940F2B3111C4B1D4800F06EFF5F
:10510000C0E901440460C460D6F81C80D8F80840A7
:105110004CB940F271213046FFF714FF00230446DA
:10512000C8F8080003604FF00009EB070AD53946BC
:1051300022463046FFF71CFF804639463046FFF7CF
:105140004BFE47466D100BD0206838B922462146E9
:105150003046FFF70DFF2060C0F800900446E4E7FA
:105160003846BDE8F88300BF586B0008896900081D
:10517000096A00082DE9F0470C4607469146236965
:10518000496803EB6218A3684FEA621A08F1010646
:10519000B3420BDB3846FFF7DFFD054648B9024650
:1051A0004FF4EF71274B284800F018FF01315B00E6
:1051B000EEE7002300F1140100F1100218465345F8
:1051C00033DB20692AEAEA7A04F1140319F01F0993
:1051D00001EB8A0103EB800C2BD08A460022C9F137
:1051E000200E186800FA09F010434AF8040B53F82F
:1051F000042B9C4522FA0EF2F3D8ACEB0403153BCA
:1052000023F00303043304F11500844538BF04235D
:10521000CA500AB108F10206013E384621462E6105
:10522000FFF7DAFD2846BDE8F08742F8040F0133A6
:10523000C5E7043953F8042B9C4541F8042FF9D8ED
:10524000EAE700BFF8690008096A000803460A692E
:10525000006930B5801A0DD11433143103EB820488
:1052600001EB820154F8045D51F8042D954202D0FF
:1052700004D3012030BDA342F4D3FBE74FF0FF304D
:10528000F8E700002DE9F84F0D460746114628467D
:105290001446FFF7DBFF061E11D131463846FFF7F3
:1052A0005BFD024628B940F237213A4B3A4800F0FC
:1052B00095FE0123C0E904361046BDE8F88FA4BF6F
:1052C00023462C4638466168A6BF1D4600260126A7
:1052D000FFF742FD024618B940F245212D4BE5E7A4
:1052E00002F11408C2464FF0000C2769C6602E690F
:1052F00004F1140005F1140900EB870E09EB860692
:10530000103454F804BF59F8043B1FFA8BF1614480
:105310001FFA83FC1B0CA1EB0C01C3EB1B4303EB3B
:10532000214389B241EA03414E454FEA234C4AF8F2
:10533000041BE6D8731B153B23F003031535043318
:10534000AE4238BF0423184443441E460546754503
:105350000ED30EF10301091A21F00301033886452B
:1053600038BF00210B4453F8041D89B11761A3E72E
:1053700055F8048B1FFA88F161440C1404EB1844AF
:1053800089B241EA04414FEA244C46F8041BDEE7A7
:10539000013FE8E7F8690008096A0008F7B501214C
:1053A00017461C46089EFFF7D7FC054630B9024653
:1053B00040F20F31224B234800F010FEC4F31303D8
:1053C000C4F30A5424BB002F019326D068460097EB
:1053D000FFF78AFDDDE90012E8B1C0F1200302FA0F
:1053E00003F30B43C2406B610192019B002B14BF7E
:1053F00002210121AB612961BCB1A4F23344044410
:105400003460C0F13500099B1860284603B0F0BD38
:1054100043F48013D7E76961E7E701A8FFF764FD6C
:10542000019B01216B612030E5E7A0F2324005EBE2
:10543000810330601869FFF737FDC0EB4110E2E7E8
:10544000F8690008096A00082DE9F0471F468E68D0
:105450008246BE420C4690460B682CD88A8912F4CC
:10546000906F26D06569096905EB4505A3EB010935
:1054700005EBD5757B1C4B446D109D4238BF1D4616
:10548000530527D52946FFF7DBFB064660B34A469E
:10549000216900F095FDA38923F4906343F0800314
:1054A000A38126614E4426603E466561A5EB090551
:1054B000A560BE4200D93E4632464146206800F013
:1054C00054FD0020A3689B1BA36023683344236022
:1054D000BDE8F0872A4600F0C5FD06460028E0D169
:1054E00050462169FFF73CFB0C23CAF80030A38922
:1054F0004FF0FF3043F04003A381E9E72DE9F04F7F
:1055000098468B8907461B060D4614469DB00ED55E
:105510000B6963B94021FFF793FB2860286120B92C
:105520000C233B604FF0FF30D0E040236B61002341
:10553000099320238DF8293030234FF00109CDF84D
:105540000C80DFF8A0818DF82A3023469A4613F8A4
:10555000012B0AB1252AF9D1BAEB040B0BD05B461B
:10556000224629463846FFF76FFF013000F0A98038
:10557000099A5A4409929AF80030002B00F0A18051
:1055800000234FF0FF32CDE905230AF1010A04930D
:1055900007938DF853301A935446052214F8011BD3
:1055A0005048FEF761FC049AD8B9D00644BF2023C6
:1055B0008DF85330110744BF2B238DF853309AF8E0
:1055C00000302A2B15D0544600204FF00A0C079AC1
:1055D000214611F8013B303B092B4DD9B0B1079260
:1055E00014E0A0EB080309FA03F31343A246049363
:1055F000D2E7039B191D1B680391002BBBBF5B42C5
:1056000042F0020207930793B8BF049223782E2B2F
:105610000CD163782A2B34D1039B02341A1D1B68EA
:105620000392002BB8BF4FF0FF330593DFF8B8A00B
:10563000032250462178FEF717FC38B14022049B24
:10564000A0EB0A00824013430134049314F8011BB9
:10565000062226488DF82810FEF706FC002838D0D0
:10566000234B1BBB039B073323F007030833039330
:10567000099B3344099368E70C4601200CFB023276
:10568000A6E700234FF00A0C194601340593204683
:1056900010F8012B303A092A03D9002BC6D0059106
:1056A000C4E7044601230CFB0121F0E703AB0093A0
:1056B0002A4638460F4B04A9FDF722FE421C064637
:1056C000D6D1AB895B063FF52DAF09981DB0BDE87B
:1056D000F08F03AB00932A463846064B04A9FEF729
:1056E000AFF8EBE7646B00086A6B00086E6B0008AC
:1056F000013300084954000838B54B1C144603D147
:105700004FF0FF35284638BD9389CDB223F02003F2
:105710009381636B52688BB1A36B934208DD23685E
:105720005A1E226003F8015C636801336360E9E795
:10573000214600F0E2FB0028F1D0E1E7216923686F
:1057400051B1994208D213F8011CA94204D1013B7E
:10575000013223606260D5E7C4E90F3204F14403EB
:1057600063630323A363234603F8465F2360012397
:10577000DCE710B50C46496B69B104F1440399426A
:1057800001D0FFF7EDF90020236C6063636013B173
:10579000E36B236010BD23694FF0FF3023600023CB
:1057A0006360A38943F02003A381F3E72DE9F04769
:1057B0000C4600210646ADF5227DCDE94411A649EF
:1057C0000DF10408A091A549A54FDFF89892CDF8F6
:1057D0001881A19100931378002B00F05A81F95C95
:1057E000551C11F0080119D06368002B0FDD2368E8
:1057F0001A78BA5C120701D42A46ECE7459A0133BD
:105800000132459262682360013A6260ECE721460A
:105810003046A19B98470028E9D0EDE7252B12D010
:105820009A466368002B40F39280226813785345B0
:1058300040F02F8163680132013B6360459B226029
:1058400001334593D8E74191439153782A2B04BF04
:105850001023951C4FF00A0208BF4193AA461AF87C
:10586000011BA1F13003092B1CD903227D48FEF74F
:10587000FBFA38B101235546419AA0EB0900834059
:105880001343419315F8013B782B06D8572B10D8BA
:10589000252BC5D056D8002B64D0032347930A2369
:1058A000429375E0439B554602FB03113039439107
:1058B000D4E7A3F15802202AEFD801A151F822F031
:1058C000735900089B5800089B580008D1590008DC
:1058D0009B5800089B5800089B5800089B580008DC
:1058E0009B5800089B5800089B580008E75900087F
:1058F000CD5900084B5900084B5900084B59000876
:105900009B580008895900089B5800089B580008BC
:105910009B5800089B580008F7590008C559000813
:105920006B5900089B5800089B580008F359000861
:105930009B580008CD5900089B5800089B58000848
:1059400073590008453B022BA7D805231FE02146C9
:105950003046A19B984700283FF467AF4498002841
:1059600040F08D804FF0FF308FE0419A42F02002EE
:105970004192419A42F40072419210226F2B34BF3F
:1059800003230423429202E000234293032347931C
:105990006368002B3DDD419B590604D423681A78C7
:1059A000BA5C12073CD4479B022B4BDC6B46224669
:1059B000304641A900F072F801286AD002287FF42D
:1059C0001BAFCBE7082342930423E0E70A22D5E785
:1059D0002946404600F058FA419B054643F04003F3
:1059E00041930123D3E7419B43F0400341930023BC
:1059F000CDE70223CBE74198C3063FF5FDAE009B00
:105A0000459A191D00911B68C0074CBF1A801A6087
:105A1000F2E621463046A19B98470028BBD09DE77F
:105A2000459A013245926268013A002A626002DDBD
:105A300001332360B2E721463046A19B98470028F6
:105A4000ACD08BE7042B0FDC6B462246304641A9D5
:105A500000F07EF8B0E700BFF95600087357000861
:105A6000D76B00086A6B00080B4B002B3FF4C4AEE9
:105A70006B462246304641A9AFF300809CE7A389DC
:105A800013F0400F18BF4FF0FF300DF5227DBDE839
:105A9000F0874498F9E700BF000000002DE9F843C3
:105AA00015468A6880460C4632B98A69002A0CBFBE
:105AB00001224FF0FF328A6000272268DFF88C90C5
:105AC000D1065FBF1A68111D19601668A06988B1F8
:105AD000012807D12B681A7863699B5C53B9002FA2
